{
  "_format": "hh-sol-artifact-1",
  "contractName": "SimpleToken",
  "sourceName": "contracts/SimpleToken.sol",
  "abi": [
    {
      "inputs": [
        {
          "internalType": "string",
          "name": "name",
          "type": "string"
        },
        {
          "internalType": "string",
          "name": "symbol",
          "type": "string"
        },
        {
          "internalType": "uint8",
          "name": "decimals_",
          "type": "uint8"
        },
        {
          "internalType": "uint256",
          "name": "initial_supply",
          "type": "uint256"
        }
      ],
      "stateMutability": "nonpayable",
      "type": "constructor"
    },
    {
      "anonymous": false,
      "inputs": [
        {
          "indexed": true,
          "internalType": "address",
          "name": "owner",
          "type": "address"
        },
        {
          "indexed": true,
          "internalType": "address",
          "name": "spender",
          "type": "address"
        },
        {
          "indexed": false,
          "internalType": "uint256",
          "name": "value",
          "type": "uint256"
        }
      ],
      "name": "Approval",
      "type": "event"
    },
    {
      "anonymous": false,
      "inputs": [
        {
          "indexed": false,
          "internalType": "address",
          "name": "account",
          "type": "address"
        }
      ],
      "name": "Paused",
      "type": "event"
    },
    {
      "anonymous": false,
      "inputs": [
        {
          "indexed": true,
          "internalType": "bytes32",
          "name": "role",
          "type": "bytes32"
        },
        {
          "indexed": true,
          "internalType": "bytes32",
          "name": "previousAdminRole",
          "type": "bytes32"
        },
        {
          "indexed": true,
          "internalType": "bytes32",
          "name": "newAdminRole",
          "type": "bytes32"
        }
      ],
      "name": "RoleAdminChanged",
      "type": "event"
    },
    {
      "anonymous": false,
      "inputs": [
        {
          "indexed": true,
          "internalType": "bytes32",
          "name": "role",
          "type": "bytes32"
        },
        {
          "indexed": true,
          "internalType": "address",
          "name": "account",
          "type": "address"
        },
        {
          "indexed": true,
          "internalType": "address",
          "name": "sender",
          "type": "address"
        }
      ],
      "name": "RoleGranted",
      "type": "event"
    },
    {
      "anonymous": false,
      "inputs": [
        {
          "indexed": true,
          "internalType": "bytes32",
          "name": "role",
          "type": "bytes32"
        },
        {
          "indexed": true,
          "internalType": "address",
          "name": "account",
          "type": "address"
        },
        {
          "indexed": true,
          "internalType": "address",
          "name": "sender",
          "type": "address"
        }
      ],
      "name": "RoleRevoked",
      "type": "event"
    },
    {
      "anonymous": false,
      "inputs": [
        {
          "indexed": true,
          "internalType": "address",
          "name": "from",
          "type": "address"
        },
        {
          "indexed": true,
          "internalType": "address",
          "name": "to",
          "type": "address"
        },
        {
          "indexed": false,
          "internalType": "uint256",
          "name": "value",
          "type": "uint256"
        }
      ],
      "name": "Transfer",
      "type": "event"
    },
    {
      "anonymous": false,
      "inputs": [
        {
          "indexed": false,
          "internalType": "address",
          "name": "account",
          "type": "address"
        }
      ],
      "name": "Unpaused",
      "type": "event"
    },
    {
      "inputs": [],
      "name": "DEFAULT_ADMIN_ROLE",
      "outputs": [
        {
          "internalType": "bytes32",
          "name": "",
          "type": "bytes32"
        }
      ],
      "stateMutability": "view",
      "type": "function"
    },
    {
      "inputs": [],
      "name": "INITIAL_SUPPLY",
      "outputs": [
        {
          "internalType": "uint256",
          "name": "",
          "type": "uint256"
        }
      ],
      "stateMutability": "view",
      "type": "function"
    },
    {
      "inputs": [],
      "name": "MINTER_ROLE",
      "outputs": [
        {
          "internalType": "bytes32",
          "name": "",
          "type": "bytes32"
        }
      ],
      "stateMutability": "view",
      "type": "function"
    },
    {
      "inputs": [],
      "name": "PAUSER_ROLE",
      "outputs": [
        {
          "internalType": "bytes32",
          "name": "",
          "type": "bytes32"
        }
      ],
      "stateMutability": "view",
      "type": "function"
    },
    {
      "inputs": [
        {
          "internalType": "address",
          "name": "owner",
          "type": "address"
        },
        {
          "internalType": "address",
          "name": "spender",
          "type": "address"
        }
      ],
      "name": "allowance",
      "outputs": [
        {
          "internalType": "uint256",
          "name": "",
          "type": "uint256"
        }
      ],
      "stateMutability": "view",
      "type": "function"
    },
    {
      "inputs": [
        {
          "internalType": "address",
          "name": "spender",
          "type": "address"
        },
        {
          "internalType": "uint256",
          "name": "amount",
          "type": "uint256"
        }
      ],
      "name": "approve",
      "outputs": [
        {
          "internalType": "bool",
          "name": "",
          "type": "bool"
        }
      ],
      "stateMutability": "nonpayable",
      "type": "function"
    },
    {
      "inputs": [
        {
          "internalType": "address",
          "name": "account",
          "type": "address"
        }
      ],
      "name": "balanceOf",
      "outputs": [
        {
          "internalType": "uint256",
          "name": "",
          "type": "uint256"
        }
      ],
      "stateMutability": "view",
      "type": "function"
    },
    {
      "inputs": [
        {
          "internalType": "uint256",
          "name": "amount",
          "type": "uint256"
        }
      ],
      "name": "burn",
      "outputs": [],
      "stateMutability": "nonpayable",
      "type": "function"
    },
    {
      "inputs": [
        {
          "internalType": "address",
          "name": "account",
          "type": "address"
        },
        {
          "internalType": "uint256",
          "name": "amount",
          "type": "uint256"
        }
      ],
      "name": "burnFrom",
      "outputs": [],
      "stateMutability": "nonpayable",
      "type": "function"
    },
    {
      "inputs": [],
      "name": "decimals",
      "outputs": [
        {
          "internalType": "uint8",
          "name": "",
          "type": "uint8"
        }
      ],
      "stateMutability": "view",
      "type": "function"
    },
    {
      "inputs": [
        {
          "internalType": "address",
          "name": "spender",
          "type": "address"
        },
        {
          "internalType": "uint256",
          "name": "subtractedValue",
          "type": "uint256"
        }
      ],
      "name": "decreaseAllowance",
      "outputs": [
        {
          "internalType": "bool",
          "name": "",
          "type": "bool"
        }
      ],
      "stateMutability": "nonpayable",
      "type": "function"
    },
    {
      "inputs": [
        {
          "internalType": "bytes32",
          "name": "role",
          "type": "bytes32"
        }
      ],
      "name": "getRoleAdmin",
      "outputs": [
        {
          "internalType": "bytes32",
          "name": "",
          "type": "bytes32"
        }
      ],
      "stateMutability": "view",
      "type": "function"
    },
    {
      "inputs": [
        {
          "internalType": "bytes32",
          "name": "role",
          "type": "bytes32"
        },
        {
          "internalType": "uint256",
          "name": "index",
          "type": "uint256"
        }
      ],
      "name": "getRoleMember",
      "outputs": [
        {
          "internalType": "address",
          "name": "",
          "type": "address"
        }
      ],
      "stateMutability": "view",
      "type": "function"
    },
    {
      "inputs": [
        {
          "internalType": "bytes32",
          "name": "role",
          "type": "bytes32"
        }
      ],
      "name": "getRoleMemberCount",
      "outputs": [
        {
          "internalType": "uint256",
          "name": "",
          "type": "uint256"
        }
      ],
      "stateMutability": "view",
      "type": "function"
    },
    {
      "inputs": [
        {
          "internalType": "bytes32",
          "name": "role",
          "type": "bytes32"
        },
        {
          "internalType": "address",
          "name": "account",
          "type": "address"
        }
      ],
      "name": "grantRole",
      "outputs": [],
      "stateMutability": "nonpayable",
      "type": "function"
    },
    {
      "inputs": [
        {
          "internalType": "bytes32",
          "name": "role",
          "type": "bytes32"
        },
        {
          "internalType": "address",
          "name": "account",
          "type": "address"
        }
      ],
      "name": "hasRole",
      "outputs": [
        {
          "internalType": "bool",
          "name": "",
          "type": "bool"
        }
      ],
      "stateMutability": "view",
      "type": "function"
    },
    {
      "inputs": [
        {
          "internalType": "address",
          "name": "spender",
          "type": "address"
        },
        {
          "internalType": "uint256",
          "name": "addedValue",
          "type": "uint256"
        }
      ],
      "name": "increaseAllowance",
      "outputs": [
        {
          "internalType": "bool",
          "name": "",
          "type": "bool"
        }
      ],
      "stateMutability": "nonpayable",
      "type": "function"
    },
    {
      "inputs": [
        {
          "internalType": "address",
          "name": "to",
          "type": "address"
        },
        {
          "internalType": "uint256",
          "name": "amount",
          "type": "uint256"
        }
      ],
      "name": "mint",
      "outputs": [],
      "stateMutability": "nonpayable",
      "type": "function"
    },
    {
      "inputs": [],
      "name": "name",
      "outputs": [
        {
          "internalType": "string",
          "name": "",
          "type": "string"
        }
      ],
      "stateMutability": "view",
      "type": "function"
    },
    {
      "inputs": [],
      "name": "pause",
      "outputs": [],
      "stateMutability": "nonpayable",
      "type": "function"
    },
    {
      "inputs": [],
      "name": "paused",
      "outputs": [
        {
          "internalType": "bool",
          "name": "",
          "type": "bool"
        }
      ],
      "stateMutability": "view",
      "type": "function"
    },
    {
      "inputs": [
        {
          "internalType": "bytes32",
          "name": "role",
          "type": "bytes32"
        },
        {
          "internalType": "address",
          "name": "account",
          "type": "address"
        }
      ],
      "name": "renounceRole",
      "outputs": [],
      "stateMutability": "nonpayable",
      "type": "function"
    },
    {
      "inputs": [
        {
          "internalType": "bytes32",
          "name": "role",
          "type": "bytes32"
        },
        {
          "internalType": "address",
          "name": "account",
          "type": "address"
        }
      ],
      "name": "revokeRole",
      "outputs": [],
      "stateMutability": "nonpayable",
      "type": "function"
    },
    {
      "inputs": [
        {
          "internalType": "bytes4",
          "name": "interfaceId",
          "type": "bytes4"
        }
      ],
      "name": "supportsInterface",
      "outputs": [
        {
          "internalType": "bool",
          "name": "",
          "type": "bool"
        }
      ],
      "stateMutability": "view",
      "type": "function"
    },
    {
      "inputs": [],
      "name": "symbol",
      "outputs": [
        {
          "internalType": "string",
          "name": "",
          "type": "string"
        }
      ],
      "stateMutability": "view",
      "type": "function"
    },
    {
      "inputs": [],
      "name": "totalSupply",
      "outputs": [
        {
          "internalType": "uint256",
          "name": "",
          "type": "uint256"
        }
      ],
      "stateMutability": "view",
      "type": "function"
    },
    {
      "inputs": [
        {
          "internalType": "address",
          "name": "to",
          "type": "address"
        },
        {
          "internalType": "uint256",
          "name": "amount",
          "type": "uint256"
        }
      ],
      "name": "transfer",
      "outputs": [
        {
          "internalType": "bool",
          "name": "",
          "type": "bool"
        }
      ],
      "stateMutability": "nonpayable",
      "type": "function"
    },
    {
      "inputs": [
        {
          "internalType": "address",
          "name": "from",
          "type": "address"
        },
        {
          "internalType": "address",
          "name": "to",
          "type": "address"
        },
        {
          "internalType": "uint256",
          "name": "amount",
          "type": "uint256"
        }
      ],
      "name": "transferFrom",
      "outputs": [
        {
          "internalType": "bool",
          "name": "",
          "type": "bool"
        }
      ],
      "stateMutability": "nonpayable",
      "type": "function"
    },
    {
      "inputs": [],
      "name": "unpause",
      "outputs": [],
      "stateMutability": "nonpayable",
      "type": "function"
    }
  ],
  "bytecode": "0x60806040523480156200001157600080fd5b5060405162003e8638038062003e86833981810160405281019062000037919062000793565b8383818181600590805190602001906200005392919062000643565b5080600690805190602001906200006c92919062000643565b5050506000600760006101000a81548160ff021916908315150217905550620000ae6000801b620000a26200019060201b60201c565b6200019860201b60201c565b620000ef7f9f2df0fed2c77648de5860a4cc508cd0818c85b8b8a1ab4ceeef8d981c8956a6620000e36200019060201b60201c565b6200019860201b60201c565b620001307f65d7a28e3265b37a6474929f336521b332c1681b933f6cb9f3376673440d862a620001246200019060201b60201c565b6200019860201b60201c565b505081600760016101000a81548160ff021916908360ff1602179055508160ff16600a6200015f919062000a7d565b816200016c919062000bba565b6008819055506200018633600854620001ae60201b60201c565b5050505062000d6c565b600033905090565b620001aa82826200031d60201b60201c565b5050565b600073ffffffffffffffffffffffffffffffffffffffff168273ffffffffffffffffffffffffffffffffffffffff16141562000221576040517f08c379a00000000000000000000000000000000000000000000000000000000081526004016200021890620008ec565b60405180910390fd5b62000235600083836200036560201b60201c565b8060046000828254620002499190620009c5565b9250508190555080600260008473ffffffffffffffffffffffffffffffffffffffff1673ffffffffffffffffffffffffffffffffffffffff168152602001908152602001600020600082825401925050819055508173ffffffffffffffffffffffffffffffffffffffff16600073ffffffffffffffffffffffffffffffffffffffff167fddf252ad1be2c89b69c2b068fc378daa952ba7f163c4a11628f55a4df523b3ef83604051620002fd919062000930565b60405180910390a362000319600083836200038260201b60201c565b5050565b6200033482826200038760201b62000d431760201c565b6200036081600160008581526020019081526020016000206200047860201b62000e231790919060201c565b505050565b6200037d838383620004b060201b62000e531760201c565b505050565b505050565b6200039982826200052060201b60201c565b6200047457600160008084815260200190815260200160002060000160008373ffffffffffffffffffffffffffffffffffffffff1673ffffffffffffffffffffffffffffffffffffffff16815260200190815260200160002060006101000a81548160ff021916908315150217905550620004196200019060201b60201c565b73ffffffffffffffffffffffffffffffffffffffff168173ffffffffffffffffffffffffffffffffffffffff16837f2f8788117e7eff1d82e926ec794901d17c78024a50270940304540a733656f0d60405160405180910390a45b5050565b6000620004a8836000018373ffffffffffffffffffffffffffffffffffffffff1660001b6200058a60201b60201c565b905092915050565b620004c88383836200060460201b62000eab1760201c565b620004d86200060960201b60201c565b156200051b576040517f08c379a000000000000000000000000000000000000000000000000000000000815260040162000512906200090e565b60405180910390fd5b505050565b600080600084815260200190815260200160002060000160008373ffffffffffffffffffffffffffffffffffffffff1673ffffffffffffffffffffffffffffffffffffffff16815260200190815260200160002060009054906101000a900460ff16905092915050565b60006200059e83836200062060201b60201c565b620005f9578260000182908060018154018082558091505060019003906000526020600020016000909190919091505582600001805490508360010160008481526020019081526020016000208190555060019050620005fe565b600090505b92915050565b505050565b6000600760009054906101000a900460ff16905090565b600080836001016000848152602001908152602001600020541415905092915050565b828054620006519062000c68565b90600052602060002090601f016020900481019282620006755760008555620006c1565b82601f106200069057805160ff1916838001178555620006c1565b82800160010185558215620006c1579182015b82811115620006c0578251825591602001919060010190620006a3565b5b509050620006d09190620006d4565b5090565b5b80821115620006ef576000816000905550600101620006d5565b5090565b60006200070a620007048462000981565b6200094d565b9050828152602081018484840111156200072357600080fd5b6200073084828562000c32565b509392505050565b600082601f8301126200074a57600080fd5b81516200075c848260208601620006f3565b91505092915050565b600081519050620007768162000d38565b92915050565b6000815190506200078d8162000d52565b92915050565b60008060008060808587031215620007aa57600080fd5b600085015167ffffffffffffffff811115620007c557600080fd5b620007d38782880162000738565b945050602085015167ffffffffffffffff811115620007f157600080fd5b620007ff8782880162000738565b935050604062000812878288016200077c565b9250506060620008258782880162000765565b91505092959194509250565b600062000840601f83620009b4565b91507f45524332303a206d696e7420746f20746865207a65726f2061646472657373006000830152602082019050919050565b600062000882602a83620009b4565b91507f45524332305061757361626c653a20746f6b656e207472616e7366657220776860008301527f696c6520706175736564000000000000000000000000000000000000000000006020830152604082019050919050565b620008e68162000c1b565b82525050565b60006020820190508181036000830152620009078162000831565b9050919050565b60006020820190508181036000830152620009298162000873565b9050919050565b6000602082019050620009476000830184620008db565b92915050565b6000604051905081810181811067ffffffffffffffff8211171562000977576200097662000cfc565b5b8060405250919050565b600067ffffffffffffffff8211156200099f576200099e62000cfc565b5b601f19601f8301169050602081019050919050565b600082825260208201905092915050565b6000620009d28262000c1b565b9150620009df8362000c1b565b9250827fffffffffffffffffffffffffffffffffffffffffffffffffffffffffffffffff0382111562000a175762000a1662000c9e565b5b828201905092915050565b6000808291508390505b600185111562000a745780860481111562000a4c5762000a4b62000c9e565b5b600185161562000a5c5780820291505b808102905062000a6c8562000d2b565b945062000a2c565b94509492505050565b600062000a8a8262000c1b565b915062000a978362000c1b565b925062000ac67fffffffffffffffffffffffffffffffffffffffffffffffffffffffffffffffff848462000ace565b905092915050565b60008262000ae0576001905062000bb3565b8162000af0576000905062000bb3565b816001811462000b09576002811462000b145762000b4a565b600191505062000bb3565b60ff84111562000b295762000b2862000c9e565b5b8360020a91508482111562000b435762000b4262000c9e565b5b5062000bb3565b5060208310610133831016604e8410600b841016171562000b845782820a90508381111562000b7e5762000b7d62000c9e565b5b62000bb3565b62000b93848484600162000a22565b9250905081840481111562000bad5762000bac62000c9e565b5b81810290505b9392505050565b600062000bc78262000c1b565b915062000bd48362000c1b565b9250817fffffffffffffffffffffffffffffffffffffffffffffffffffffffffffffffff048311821515161562000c105762000c0f62000c9e565b5b828202905092915050565b6000819050919050565b600060ff82169050919050565b60005b8381101562000c5257808201518184015260208101905062000c35565b8381111562000c62576000848401525b50505050565b6000600282049050600182168062000c8157607f821691505b6020821081141562000c985762000c9762000ccd565b5b50919050565b7f4e487b7100000000000000000000000000000000000000000000000000000000600052601160045260246000fd5b7f4e487b7100000000000000000000000000000000000000000000000000000000600052602260045260246000fd5b7f4e487b7100000000000000000000000000000000000000000000000000000000600052604160045260246000fd5b60008160011c9050919050565b62000d438162000c1b565b811462000d4f57600080fd5b50565b62000d5d8162000c25565b811462000d6957600080fd5b50565b61310a8062000d7c6000396000f3fe608060405234801561001057600080fd5b50600436106101cf5760003560e01c80635c975abb11610104578063a217fddf116100a2578063d539139311610071578063d539139314610556578063d547741f14610574578063dd62ed3e14610590578063e63ab1e9146105c0576101cf565b8063a217fddf146104a8578063a457c2d7146104c6578063a9059cbb146104f6578063ca15c87314610526576101cf565b80638456cb59116100de5780638456cb59146104205780639010d07c1461042a57806391d148541461045a57806395d89b411461048a576101cf565b80635c975abb146103b657806370a08231146103d457806379cc679014610404576101cf565b80632ff2e9dc11610171578063395093511161014b57806339509351146103445780633f4ba83a1461037457806340c10f191461037e57806342966c681461039a576101cf565b80632ff2e9dc146102ec578063313ce5671461030a57806336568abe14610328576101cf565b806318160ddd116101ad57806318160ddd1461025257806323b872dd14610270578063248a9ca3146102a05780632f2ff15d146102d0576101cf565b806301ffc9a7146101d457806306fdde0314610204578063095ea7b314610222575b600080fd5b6101ee60048036038101906101e991906122cc565b6105de565b6040516101fb9190612b16565b60405180910390f35b61020c610658565b6040516102199190612b4c565b60405180910390f35b61023c600480360381019061023791906121ef565b6106ea565b6040516102499190612b16565b60405180910390f35b61025a61070d565b6040516102679190612dae565b60405180910390f35b61028a600480360381019061028591906121a0565b610717565b6040516102979190612b16565b60405180910390f35b6102ba60048036038101906102b5919061222b565b610746565b6040516102c79190612b31565b60405180910390f35b6102ea60048036038101906102e59190612254565b610765565b005b6102f4610786565b6040516103019190612dae565b60405180910390f35b61031261078c565b60405161031f9190612dc9565b60405180910390f35b610342600480360381019061033d9190612254565b6107a3565b005b61035e600480360381019061035991906121ef565b610826565b60405161036b9190612b16565b60405180910390f35b61037c61085d565b005b610398600480360381019061039391906121ef565b6108d7565b005b6103b460048036038101906103af91906122f5565b610955565b005b6103be610969565b6040516103cb9190612b16565b60405180910390f35b6103ee60048036038101906103e9919061213b565b610980565b6040516103fb9190612dae565b60405180910390f35b61041e600480360381019061041991906121ef565b6109c9565b005b6104286109e9565b005b610444600480360381019061043f9190612290565b610a63565b6040516104519190612afb565b60405180910390f35b610474600480360381019061046f9190612254565b610a92565b6040516104819190612b16565b60405180910390f35b610492610afc565b60405161049f9190612b4c565b60405180910390f35b6104b0610b8e565b6040516104bd9190612b31565b60405180910390f35b6104e060048036038101906104db91906121ef565b610b95565b6040516104ed9190612b16565b60405180910390f35b610510600480360381019061050b91906121ef565b610c0c565b60405161051d9190612b16565b60405180910390f35b610540600480360381019061053b919061222b565b610c2f565b60405161054d9190612dae565b60405180910390f35b61055e610c53565b60405161056b9190612b31565b60405180910390f35b61058e60048036038101906105899190612254565b610c77565b005b6105aa60048036038101906105a59190612164565b610c98565b6040516105b79190612dae565b60405180910390f35b6105c8610d1f565b6040516105d59190612b31565b60405180910390f35b60007f5a05180f000000000000000000000000000000000000000000000000000000007bffffffffffffffffffffffffffffffffffffffffffffffffffffffff1916827bffffffffffffffffffffffffffffffffffffffffffffffffffffffff19161480610651575061065082610eb0565b5b9050919050565b60606005805461066790612fd7565b80601f016020809104026020016040519081016040528092919081815260200182805461069390612fd7565b80156106e05780601f106106b5576101008083540402835291602001916106e0565b820191906000526020600020905b8154815290600101906020018083116106c357829003601f168201915b5050505050905090565b6000806106f5610f2a565b9050610702818585610f32565b600191505092915050565b6000600454905090565b600080610722610f2a565b905061072f8582856110fd565b61073a858585611189565b60019150509392505050565b6000806000838152602001908152602001600020600101549050919050565b61076e82610746565b61077781611404565b6107818383611418565b505050565b60085481565b6000600760019054906101000a900460ff16905090565b6107ab610f2a565b73ffffffffffffffffffffffffffffffffffffffff168173ffffffffffffffffffffffffffffffffffffffff1614610818576040517f08c379a000000000000000000000000000000000000000000000000000000000815260040161080f90612d4e565b60405180910390fd5b610822828261144c565b5050565b600080610831610f2a565b90506108528185856108438589610c98565b61084d9190612e0b565b610f32565b600191505092915050565b61088e7f65d7a28e3265b37a6474929f336521b332c1681b933f6cb9f3376673440d862a610889610f2a565b610a92565b6108cd576040517f08c379a00000000000000000000000000000000000000000000000000000000081526004016108c490612bee565b60405180910390fd5b6108d5611480565b565b6109087f9f2df0fed2c77648de5860a4cc508cd0818c85b8b8a1ab4ceeef8d981c8956a6610903610f2a565b610a92565b610947576040517f08c379a000000000000000000000000000000000000000000000000000000000815260040161093e90612c8e565b60405180910390fd5b61095182826114e3565b5050565b610966610960610f2a565b8261163b565b50565b6000600760009054906101000a900460ff16905090565b6000600260008373ffffffffffffffffffffffffffffffffffffffff1673ffffffffffffffffffffffffffffffffffffffff168152602001908152602001600020549050919050565b6109db826109d5610f2a565b836110fd565b6109e5828261163b565b5050565b610a1a7f65d7a28e3265b37a6474929f336521b332c1681b933f6cb9f3376673440d862a610a15610f2a565b610a92565b610a59576040517f08c379a0000000000000000000000000000000000000000000000000000000008152600401610a5090612d0e565b60405180910390fd5b610a6161180b565b565b6000610a8a826001600086815260200190815260200160002061186e90919063ffffffff16565b905092915050565b600080600084815260200190815260200160002060000160008373ffffffffffffffffffffffffffffffffffffffff1673ffffffffffffffffffffffffffffffffffffffff16815260200190815260200160002060009054906101000a900460ff16905092915050565b606060068054610b0b90612fd7565b80601f0160208091040260200160405190810160405280929190818152602001828054610b3790612fd7565b8015610b845780601f10610b5957610100808354040283529160200191610b84565b820191906000526020600020905b815481529060010190602001808311610b6757829003601f168201915b5050505050905090565b6000801b81565b600080610ba0610f2a565b90506000610bae8286610c98565b905083811015610bf3576040517f08c379a0000000000000000000000000000000000000000000000000000000008152600401610bea90612d2e565b60405180910390fd5b610c008286868403610f32565b60019250505092915050565b600080610c17610f2a565b9050610c24818585611189565b600191505092915050565b6000610c4c60016000848152602001908152602001600020611888565b9050919050565b7f9f2df0fed2c77648de5860a4cc508cd0818c85b8b8a1ab4ceeef8d981c8956a681565b610c8082610746565b610c8981611404565b610c93838361144c565b505050565b6000600360008473ffffffffffffffffffffffffffffffffffffffff1673ffffffffffffffffffffffffffffffffffffffff16815260200190815260200160002060008373ffffffffffffffffffffffffffffffffffffffff1673ffffffffffffffffffffffffffffffffffffffff16815260200190815260200160002054905092915050565b7f65d7a28e3265b37a6474929f336521b332c1681b933f6cb9f3376673440d862a81565b610d4d8282610a92565b610e1f57600160008084815260200190815260200160002060000160008373ffffffffffffffffffffffffffffffffffffffff1673ffffffffffffffffffffffffffffffffffffffff16815260200190815260200160002060006101000a81548160ff021916908315150217905550610dc4610f2a565b73ffffffffffffffffffffffffffffffffffffffff168173ffffffffffffffffffffffffffffffffffffffff16837f2f8788117e7eff1d82e926ec794901d17c78024a50270940304540a733656f0d60405160405180910390a45b5050565b6000610e4b836000018373ffffffffffffffffffffffffffffffffffffffff1660001b61189d565b905092915050565b610e5e838383610eab565b610e66610969565b15610ea6576040517f08c379a0000000000000000000000000000000000000000000000000000000008152600401610e9d90612d8e565b60405180910390fd5b505050565b505050565b60007f7965db0b000000000000000000000000000000000000000000000000000000007bffffffffffffffffffffffffffffffffffffffffffffffffffffffff1916827bffffffffffffffffffffffffffffffffffffffffffffffffffffffff19161480610f235750610f228261190d565b5b9050919050565b600033905090565b600073ffffffffffffffffffffffffffffffffffffffff168373ffffffffffffffffffffffffffffffffffffffff161415610fa2576040517f08c379a0000000000000000000000000000000000000000000000000000000008152600401610f9990612cee565b60405180910390fd5b600073ffffffffffffffffffffffffffffffffffffffff168273ffffffffffffffffffffffffffffffffffffffff161415611012576040517f08c379a000000000000000000000000000000000000000000000000000000000815260040161100990612c0e565b60405180910390fd5b80600360008573ffffffffffffffffffffffffffffffffffffffff1673ffffffffffffffffffffffffffffffffffffffff16815260200190815260200160002060008473ffffffffffffffffffffffffffffffffffffffff1673ffffffffffffffffffffffffffffffffffffffff168152602001908152602001600020819055508173ffffffffffffffffffffffffffffffffffffffff168373ffffffffffffffffffffffffffffffffffffffff167f8c5be1e5ebec7d5bd14f71427d1e84f3dd0314c0f7b2291e5b200ac8c7c3b925836040516110f09190612dae565b60405180910390a3505050565b60006111098484610c98565b90507fffffffffffffffffffffffffffffffffffffffffffffffffffffffffffffffff81146111835781811015611175576040517f08c379a000000000000000000000000000000000000000000000000000000000815260040161116c90612c2e565b60405180910390fd5b6111828484848403610f32565b5b50505050565b600073ffffffffffffffffffffffffffffffffffffffff168373ffffffffffffffffffffffffffffffffffffffff1614156111f9576040517f08c379a00000000000000000000000000000000000000000000000000000000081526004016111f090612cce565b60405180910390fd5b600073ffffffffffffffffffffffffffffffffffffffff168273ffffffffffffffffffffffffffffffffffffffff161415611269576040517f08c379a000000000000000000000000000000000000000000000000000000000815260040161126090612b8e565b60405180910390fd5b611274838383611977565b6000600260008573ffffffffffffffffffffffffffffffffffffffff1673ffffffffffffffffffffffffffffffffffffffff168152602001908152602001600020549050818110156112fb576040517f08c379a00000000000000000000000000000000000000000000000000000000081526004016112f290612c4e565b60405180910390fd5b818103600260008673ffffffffffffffffffffffffffffffffffffffff1673ffffffffffffffffffffffffffffffffffffffff1681526020019081526020016000208190555081600260008573ffffffffffffffffffffffffffffffffffffffff1673ffffffffffffffffffffffffffffffffffffffff168152602001908152602001600020600082825401925050819055508273ffffffffffffffffffffffffffffffffffffffff168473ffffffffffffffffffffffffffffffffffffffff167fddf252ad1be2c89b69c2b068fc378daa952ba7f163c4a11628f55a4df523b3ef846040516113eb9190612dae565b60405180910390a36113fe848484611987565b50505050565b61141581611410610f2a565b61198c565b50565b6114228282610d43565b6114478160016000858152602001908152602001600020610e2390919063ffffffff16565b505050565b6114568282611a11565b61147b8160016000858152602001908152602001600020611af290919063ffffffff16565b505050565b611488611b22565b6000600760006101000a81548160ff0219169083151502179055507f5db9ee0a495bf2e6ff9c91a7834c1ba4fdd244a5e8aa4e537bd38aeae4b073aa6114cc610f2a565b6040516114d99190612afb565b60405180910390a1565b600073ffffffffffffffffffffffffffffffffffffffff168273ffffffffffffffffffffffffffffffffffffffff161415611553576040517f08c379a000000000000000000000000000000000000000000000000000000000815260040161154a90612d6e565b60405180910390fd5b61155f60008383611977565b80600460008282546115719190612e0b565b9250508190555080600260008473ffffffffffffffffffffffffffffffffffffffff1673ffffffffffffffffffffffffffffffffffffffff168152602001908152602001600020600082825401925050819055508173ffffffffffffffffffffffffffffffffffffffff16600073ffffffffffffffffffffffffffffffffffffffff167fddf252ad1be2c89b69c2b068fc378daa952ba7f163c4a11628f55a4df523b3ef836040516116239190612dae565b60405180910390a361163760008383611987565b5050565b600073ffffffffffffffffffffffffffffffffffffffff168273ffffffffffffffffffffffffffffffffffffffff1614156116ab576040517f08c379a00000000000000000000000000000000000000000000000000000000081526004016116a290612cae565b60405180910390fd5b6116b782600083611977565b6000600260008473ffffffffffffffffffffffffffffffffffffffff1673ffffffffffffffffffffffffffffffffffffffff1681526020019081526020016000205490508181101561173e576040517f08c379a000000000000000000000000000000000000000000000000000000000815260040161173590612bce565b60405180910390fd5b818103600260008573ffffffffffffffffffffffffffffffffffffffff1673ffffffffffffffffffffffffffffffffffffffff1681526020019081526020016000208190555081600460008282540392505081905550600073ffffffffffffffffffffffffffffffffffffffff168373ffffffffffffffffffffffffffffffffffffffff167fddf252ad1be2c89b69c2b068fc378daa952ba7f163c4a11628f55a4df523b3ef846040516117f29190612dae565b60405180910390a361180683600084611987565b505050565b611813611b6b565b6001600760006101000a81548160ff0219169083151502179055507f62e78cea01bee320cd4e420270b5ea74000d11b0c9f74754ebdbfc544b05a258611857610f2a565b6040516118649190612afb565b60405180910390a1565b600061187d8360000183611bb5565b60001c905092915050565b600061189682600001611c06565b9050919050565b60006118a98383611c17565b611902578260000182908060018154018082558091505060019003906000526020600020016000909190919091505582600001805490508360010160008481526020019081526020016000208190555060019050611907565b600090505b92915050565b60007f01ffc9a7000000000000000000000000000000000000000000000000000000007bffffffffffffffffffffffffffffffffffffffffffffffffffffffff1916827bffffffffffffffffffffffffffffffffffffffffffffffffffffffff1916149050919050565b611982838383610e53565b505050565b505050565b6119968282610a92565b611a0d576119a381611c3a565b6119b18360001c6020611c67565b6040516020016119c2929190612ac1565b6040516020818303038152906040526040517f08c379a0000000000000000000000000000000000000000000000000000000008152600401611a049190612b4c565b60405180910390fd5b5050565b611a1b8282610a92565b15611aee57600080600084815260200190815260200160002060000160008373ffffffffffffffffffffffffffffffffffffffff1673ffffffffffffffffffffffffffffffffffffffff16815260200190815260200160002060006101000a81548160ff021916908315150217905550611a93610f2a565b73ffffffffffffffffffffffffffffffffffffffff168173ffffffffffffffffffffffffffffffffffffffff16837ff6391f5c32d9c69d2a47ea670b442974b53935d1edc7fd64eb21e047a839171b60405160405180910390a45b5050565b6000611b1a836000018373ffffffffffffffffffffffffffffffffffffffff1660001b611f61565b905092915050565b611b2a610969565b611b69576040517f08c379a0000000000000000000000000000000000000000000000000000000008152600401611b6090612bae565b60405180910390fd5b565b611b73610969565b15611bb3576040517f08c379a0000000000000000000000000000000000000000000000000000000008152600401611baa90612c6e565b60405180910390fd5b565b6000826000018281548110611bf3577f4e487b7100000000000000000000000000000000000000000000000000000000600052603260045260246000fd5b9060005260206000200154905092915050565b600081600001805490509050919050565b600080836001016000848152602001908152602001600020541415905092915050565b6060611c608273ffffffffffffffffffffffffffffffffffffffff16601460ff16611c67565b9050919050565b606060006002836002611c7a9190612e61565b611c849190612e0b565b67ffffffffffffffff811115611cc3577f4e487b7100000000000000000000000000000000000000000000000000000000600052604160045260246000fd5b6040519080825280601f01601f191660200182016040528015611cf55781602001600182028036833780820191505090505b5090507f300000000000000000000000000000000000000000000000000000000000000081600081518110611d53577f4e487b7100000000000000000000000000000000000000000000000000000000600052603260045260246000fd5b60200101907effffffffffffffffffffffffffffffffffffffffffffffffffffffffffffff1916908160001a9053507f780000000000000000000000000000000000000000000000000000000000000081600181518110611ddd577f4e487b7100000000000000000000000000000000000000000000000000000000600052603260045260246000fd5b60200101907effffffffffffffffffffffffffffffffffffffffffffffffffffffffffffff1916908160001a90535060006001846002611e1d9190612e61565b611e279190612e0b565b90505b6001811115611f13577f3031323334353637383961626364656600000000000000000000000000000000600f861660108110611e8f577f4e487b7100000000000000000000000000000000000000000000000000000000600052603260045260246000fd5b1a60f81b828281518110611ecc577f4e487b7100000000000000000000000000000000000000000000000000000000600052603260045260246000fd5b60200101907effffffffffffffffffffffffffffffffffffffffffffffffffffffffffffff1916908160001a905350600485901c945080611f0c90612fad565b9050611e2a565b5060008414611f57576040517f08c379a0000000000000000000000000000000000000000000000000000000008152600401611f4e90612b6e565b60405180910390fd5b8091505092915050565b600080836001016000848152602001908152602001600020549050600081146120db576000600182611f939190612ebb565b9050600060018660000180549050611fab9190612ebb565b9050818114612066576000866000018281548110611ff2577f4e487b7100000000000000000000000000000000000000000000000000000000600052603260045260246000fd5b906000526020600020015490508087600001848154811061203c577f4e487b7100000000000000000000000000000000000000000000000000000000600052603260045260246000fd5b90600052602060002001819055508387600101600083815260200190815260200160002081905550505b856000018054806120a0577f4e487b7100000000000000000000000000000000000000000000000000000000600052603160045260246000fd5b6001900381819060005260206000200160009055905585600101600086815260200190815260200160002060009055600193505050506120e1565b60009150505b92915050565b6000813590506120f681613078565b92915050565b60008135905061210b8161308f565b92915050565b600081359050612120816130a6565b92915050565b600081359050612135816130bd565b92915050565b60006020828403121561214d57600080fd5b600061215b848285016120e7565b91505092915050565b6000806040838503121561217757600080fd5b6000612185858286016120e7565b9250506020612196858286016120e7565b9150509250929050565b6000806000606084860312156121b557600080fd5b60006121c3868287016120e7565b93505060206121d4868287016120e7565b92505060406121e586828701612126565b9150509250925092565b6000806040838503121561220257600080fd5b6000612210858286016120e7565b925050602061222185828601612126565b9150509250929050565b60006020828403121561223d57600080fd5b600061224b848285016120fc565b91505092915050565b6000806040838503121561226757600080fd5b6000612275858286016120fc565b9250506020612286858286016120e7565b9150509250929050565b600080604083850312156122a357600080fd5b60006122b1858286016120fc565b92505060206122c285828601612126565b9150509250929050565b6000602082840312156122de57600080fd5b60006122ec84828501612111565b91505092915050565b60006020828403121561230757600080fd5b600061231584828501612126565b91505092915050565b61232781612eef565b82525050565b61233681612f01565b82525050565b61234581612f0d565b82525050565b600061235682612de4565b6123608185612def565b9350612370818560208601612f7a565b61237981613067565b840191505092915050565b600061238f82612de4565b6123998185612e00565b93506123a9818560208601612f7a565b80840191505092915050565b60006123c2602083612def565b91507f537472696e67733a20686578206c656e67746820696e73756666696369656e746000830152602082019050919050565b6000612402602383612def565b91507f45524332303a207472616e7366657220746f20746865207a65726f206164647260008301527f65737300000000000000000000000000000000000000000000000000000000006020830152604082019050919050565b6000612468601483612def565b91507f5061757361626c653a206e6f74207061757365640000000000000000000000006000830152602082019050919050565b60006124a8602283612def565b91507f45524332303a206275726e20616d6f756e7420657863656564732062616c616e60008301527f63650000000000000000000000000000000000000000000000000000000000006020830152604082019050919050565b600061250e603983612def565b91507f45524332305072657365744d696e7465725061757365723a206d75737420686160008301527f76652070617573657220726f6c6520746f20756e7061757365000000000000006020830152604082019050919050565b6000612574602283612def565b91507f45524332303a20617070726f766520746f20746865207a65726f20616464726560008301527f73730000000000000000000000000000000000000000000000000000000000006020830152604082019050919050565b60006125da601d83612def565b91507f45524332303a20696e73756666696369656e7420616c6c6f77616e63650000006000830152602082019050919050565b600061261a602683612def565b91507f45524332303a207472616e7366657220616d6f756e742065786365656473206260008301527f616c616e636500000000000000000000000000000000000000000000000000006020830152604082019050919050565b6000612680601083612def565b91507f5061757361626c653a20706175736564000000000000000000000000000000006000830152602082019050919050565b60006126c0603683612def565b91507f45524332305072657365744d696e7465725061757365723a206d75737420686160008301527f7665206d696e74657220726f6c6520746f206d696e74000000000000000000006020830152604082019050919050565b6000612726602183612def565b91507f45524332303a206275726e2066726f6d20746865207a65726f2061646472657360008301527f73000000000000000000000000000000000000000000000000000000000000006020830152604082019050919050565b600061278c602583612def565b91507f45524332303a207472616e736665722066726f6d20746865207a65726f20616460008301527f64726573730000000000000000000000000000000000000000000000000000006020830152604082019050919050565b60006127f2602483612def565b91507f45524332303a20617070726f76652066726f6d20746865207a65726f2061646460008301527f72657373000000000000000000000000000000000000000000000000000000006020830152604082019050919050565b6000612858603783612def565b91507f45524332305072657365744d696e7465725061757365723a206d75737420686160008301527f76652070617573657220726f6c6520746f2070617573650000000000000000006020830152604082019050919050565b60006128be601783612e00565b91507f416363657373436f6e74726f6c3a206163636f756e74200000000000000000006000830152601782019050919050565b60006128fe602583612def565b91507f45524332303a2064656372656173656420616c6c6f77616e63652062656c6f7760008301527f207a65726f0000000000000000000000000000000000000000000000000000006020830152604082019050919050565b6000612964601183612e00565b91507f206973206d697373696e6720726f6c65200000000000000000000000000000006000830152601182019050919050565b60006129a4602f83612def565b91507f416363657373436f6e74726f6c3a2063616e206f6e6c792072656e6f756e636560008301527f20726f6c657320666f722073656c6600000000000000000000000000000000006020830152604082019050919050565b6000612a0a601f83612def565b91507f45524332303a206d696e7420746f20746865207a65726f2061646472657373006000830152602082019050919050565b6000612a4a602a83612def565b91507f45524332305061757361626c653a20746f6b656e207472616e7366657220776860008301527f696c6520706175736564000000000000000000000000000000000000000000006020830152604082019050919050565b612aac81612f63565b82525050565b612abb81612f6d565b82525050565b6000612acc826128b1565b9150612ad88285612384565b9150612ae382612957565b9150612aef8284612384565b91508190509392505050565b6000602082019050612b10600083018461231e565b92915050565b6000602082019050612b2b600083018461232d565b92915050565b6000602082019050612b46600083018461233c565b92915050565b60006020820190508181036000830152612b66818461234b565b905092915050565b60006020820190508181036000830152612b87816123b5565b9050919050565b60006020820190508181036000830152612ba7816123f5565b9050919050565b60006020820190508181036000830152612bc78161245b565b9050919050565b60006020820190508181036000830152612be78161249b565b9050919050565b60006020820190508181036000830152612c0781612501565b9050919050565b60006020820190508181036000830152612c2781612567565b9050919050565b60006020820190508181036000830152612c47816125cd565b9050919050565b60006020820190508181036000830152612c678161260d565b9050919050565b60006020820190508181036000830152612c8781612673565b9050919050565b60006020820190508181036000830152612ca7816126b3565b9050919050565b60006020820190508181036000830152612cc781612719565b9050919050565b60006020820190508181036000830152612ce78161277f565b9050919050565b60006020820190508181036000830152612d07816127e5565b9050919050565b60006020820190508181036000830152612d278161284b565b9050919050565b60006020820190508181036000830152612d47816128f1565b9050919050565b60006020820190508181036000830152612d6781612997565b9050919050565b60006020820190508181036000830152612d87816129fd565b9050919050565b60006020820190508181036000830152612da781612a3d565b9050919050565b6000602082019050612dc36000830184612aa3565b92915050565b6000602082019050612dde6000830184612ab2565b92915050565b600081519050919050565b600082825260208201905092915050565b600081905092915050565b6000612e1682612f63565b9150612e2183612f63565b9250827fffffffffffffffffffffffffffffffffffffffffffffffffffffffffffffffff03821115612e5657612e55613009565b5b828201905092915050565b6000612e6c82612f63565b9150612e7783612f63565b9250817fffffffffffffffffffffffffffffffffffffffffffffffffffffffffffffffff0483118215151615612eb057612eaf613009565b5b828202905092915050565b6000612ec682612f63565b9150612ed183612f63565b925082821015612ee457612ee3613009565b5b828203905092915050565b6000612efa82612f43565b9050919050565b60008115159050919050565b6000819050919050565b60007fffffffff0000000000000000000000000000000000000000000000000000000082169050919050565b600073ffffffffffffffffffffffffffffffffffffffff82169050919050565b6000819050919050565b600060ff82169050919050565b60005b83811015612f98578082015181840152602081019050612f7d565b83811115612fa7576000848401525b50505050565b6000612fb882612f63565b91506000821415612fcc57612fcb613009565b5b600182039050919050565b60006002820490506001821680612fef57607f821691505b6020821081141561300357613002613038565b5b50919050565b7f4e487b7100000000000000000000000000000000000000000000000000000000600052601160045260246000fd5b7f4e487b7100000000000000000000000000000000000000000000000000000000600052602260045260246000fd5b6000601f19601f8301169050919050565b61308181612eef565b811461308c57600080fd5b50565b61309881612f0d565b81146130a357600080fd5b50565b6130af81612f17565b81146130ba57600080fd5b50565b6130c681612f63565b81146130d157600080fd5b5056fea26469706673582212202cd60d2f84ae29e3c773e7cde08b2378b47c50e55e5101abe10e8481b4e122f864736f6c63430008000033",
  "linkReferences": {},
  "deployedLinkReferences": {}
}