{
  "_format": "hh-sol-artifact-1",
  "contractName": "CrowdFunding",
  "sourceName": "contracts/CrowdFunding.sol",
  "abi": [
    {
      "anonymous": false,
      "inputs": [
        {
          "indexed": false,
          "internalType": "address",
          "name": "contractAddress",
          "type": "address"
        },
        {
          "indexed": false,
          "internalType": "address",
          "name": "projectStarter",
          "type": "address"
        },
        {
          "indexed": false,
          "internalType": "string",
          "name": "projectTitle",
          "type": "string"
        },
        {
          "indexed": false,
          "internalType": "string",
          "name": "projectDesc",
          "type": "string"
        },
        {
          "indexed": false,
          "internalType": "uint256",
          "name": "deadline",
          "type": "uint256"
        },
        {
          "indexed": false,
          "internalType": "uint256",
          "name": "goalAmount",
          "type": "uint256"
        }
      ],
      "name": "ProjectStarted",
      "type": "event"
    },
    {
      "inputs": [],
      "name": "returnAllProjects",
      "outputs": [
        {
          "internalType": "contract Project[]",
          "name": "",
          "type": "address[]"
        }
      ],
      "stateMutability": "view",
      "type": "function"
    },
    {
      "inputs": [
        {
          "internalType": "string",
          "name": "title",
          "type": "string"
        },
        {
          "internalType": "string",
          "name": "description",
          "type": "string"
        },
        {
          "internalType": "uint256",
          "name": "durationInDays",
          "type": "uint256"
        },
        {
          "internalType": "uint256",
          "name": "amountToRaise",
          "type": "uint256"
        }
      ],
      "name": "startProject",
      "outputs": [],
      "stateMutability": "nonpayable",
      "type": "function"
    }
  ],
  "bytecode": "0x608060405234801561001057600080fd5b50611de7806100206000396000f3fe60806040523480156200001157600080fd5b50600436106200003a5760003560e01c806385b6e28e146200003f578063a24a2d161462000061575b600080fd5b6200004962000081565b6040516200005891906200056f565b60405180910390f35b6200007f6004803603810190620000799190620002e0565b62000111565b005b606060008054806020026020016040519081016040528092919081815260200182805480156200010757602002820191906000526020600020905b8160009054906101000a900473ffffffffffffffffffffffffffffffffffffffff1673ffffffffffffffffffffffffffffffffffffffff1681526020019060010190808311620000bc575b5050505050905090565b60006200013f6200012f62015180856200023e90919063ffffffff16565b426200025690919063ffffffff16565b905060003388888888868860405162000158906200026e565b6200016a979695949392919062000481565b604051809103906000f08015801562000187573d6000803e3d6000fd5b5090506000819080600181540180825580915050600190039060005260206000200160009091909190916101000a81548173ffffffffffffffffffffffffffffffffffffffff021916908373ffffffffffffffffffffffffffffffffffffffff1602179055507f6218c120ad6d836da0bfe4d4c44c8375356514fce6ae39ecdcd483fad6056e6681338a8a8a8a888a6040516200022c989796959493929190620004f0565b60405180910390a15050505050505050565b600081836200024e91906200063a565b905092915050565b60008183620002669190620005dd565b905092915050565b611633806200077f83390190565b60008083601f8401126200028f57600080fd5b8235905067ffffffffffffffff811115620002a957600080fd5b602083019150836001820283011115620002c257600080fd5b9250929050565b600081359050620002da8162000764565b92915050565b60008060008060008060808789031215620002fa57600080fd5b600087013567ffffffffffffffff8111156200031557600080fd5b6200032389828a016200027c565b9650965050602087013567ffffffffffffffff8111156200034357600080fd5b6200035189828a016200027c565b945094505060406200036689828a01620002c9565b92505060606200037989828a01620002c9565b9150509295509295509295565b60006200039483836200042c565b60208301905092915050565b620003ab81620006af565b82525050565b620003bc816200069b565b82525050565b6000620003cf82620005a3565b620003db8185620005bb565b9350620003e88362000593565b8060005b838110156200041f57815162000403888262000386565b97506200041083620005ae565b925050600181019050620003ec565b5085935050505092915050565b6200043781620006ed565b82525050565b60006200044b8385620005cc565b93506200045a83858462000715565b620004658362000753565b840190509392505050565b6200047b81620006e3565b82525050565b600060a08201905062000498600083018a620003a0565b8181036020830152620004ad81888a6200043d565b90508181036040830152620004c48186886200043d565b9050620004d5606083018562000470565b620004e4608083018462000470565b98975050505050505050565b600060c08201905062000507600083018b620003b1565b62000516602083018a620003b1565b81810360408301526200052b81888a6200043d565b90508181036060830152620005428186886200043d565b905062000553608083018562000470565b6200056260a083018462000470565b9998505050505050505050565b600060208201905081810360008301526200058b8184620003c2565b905092915050565b6000819050602082019050919050565b600081519050919050565b6000602082019050919050565b600082825260208201905092915050565b600082825260208201905092915050565b6000620005ea82620006e3565b9150620005f783620006e3565b9250827fffffffffffffffffffffffffffffffffffffffffffffffffffffffffffffffff038211156200062f576200062e62000724565b5b828201905092915050565b60006200064782620006e3565b91506200065483620006e3565b9250817fffffffffffffffffffffffffffffffffffffffffffffffffffffffffffffffff048311821515161562000690576200068f62000724565b5b828202905092915050565b6000620006a882620006c3565b9050919050565b6000620006bc82620006c3565b9050919050565b600073ffffffffffffffffffffffffffffffffffffffff82169050919050565b6000819050919050565b6000620006fa8262000701565b9050919050565b60006200070e82620006c3565b9050919050565b82818337600083830152505050565b7f4e487b7100000000000000000000000000000000000000000000000000000000600052601160045260246000fd5b6000601f19601f8301169050919050565b6200076f81620006e3565b81146200077b57600080fd5b5056fe60806040526000600760006101000a81548160ff0219169083600281111562000051577f4e487b7100000000000000000000000000000000000000000000000000000000600052602160045260246000fd5b02179055503480156200006357600080fd5b50604051620016333803806200163383398181016040528101906200008991906200026c565b846000806101000a81548173ffffffffffffffffffffffffffffffffffffffff021916908373ffffffffffffffffffffffffffffffffffffffff1602179055508360059080519060200190620000e19291906200011c565b508260069080519060200190620000fa9291906200011c565b50816004819055508060018190555060006003819055505050505050620004c3565b8280546200012a90620003fb565b90600052602060002090601f0160209004810192826200014e57600085556200019a565b82601f106200016957805160ff19168380011785556200019a565b828001600101855582156200019a579182015b82811115620001995782518255916020019190600101906200017c565b5b509050620001a99190620001ad565b5090565b5b80821115620001c8576000816000905550600101620001ae565b5090565b6000620001e3620001dd8462000354565b62000320565b905082815260208101848484011115620001fc57600080fd5b62000209848285620003c5565b509392505050565b60008151905062000222816200048f565b92915050565b600082601f8301126200023a57600080fd5b81516200024c848260208601620001cc565b91505092915050565b6000815190506200026681620004a9565b92915050565b600080600080600060a086880312156200028557600080fd5b6000620002958882890162000211565b955050602086015167ffffffffffffffff811115620002b357600080fd5b620002c18882890162000228565b945050604086015167ffffffffffffffff811115620002df57600080fd5b620002ed8882890162000228565b9350506060620003008882890162000255565b9250506080620003138882890162000255565b9150509295509295909350565b6000604051905081810181811067ffffffffffffffff821117156200034a576200034962000460565b5b8060405250919050565b600067ffffffffffffffff82111562000372576200037162000460565b5b601f19601f8301169050602081019050919050565b600062000394826200039b565b9050919050565b600073ffffffffffffffffffffffffffffffffffffffff82169050919050565b6000819050919050565b60005b83811015620003e5578082015181840152602081019050620003c8565b83811115620003f5576000848401525b50505050565b600060028204905060018216806200041457607f821691505b602082108114156200042b576200042a62000431565b5b50919050565b7f4e487b7100000000000000000000000000000000000000000000000000000000600052602260045260246000fd5b7f4e487b7100000000000000000000000000000000000000000000000000000000600052604160045260246000fd5b6200049a8162000387565b8114620004a657600080fd5b50565b620004b481620003bb565b8114620004c057600080fd5b50565b61116080620004d36000396000f3fe6080604052600436106100c25760003560e01c80637284e4161161007f578063c19d93fb11610059578063c19d93fb14610248578063ce845d1d14610273578063d7bb99ba1461029e578063fbbf93a0146102a8576100c2565b80637284e416146101db57806386f3258614610206578063b2d5ae441461021d576100c2565b806302d05d3f146100c75780630785001c146100f257806337f944cc1461011d57806342e94c90146101485780634a79d50c146101855780634c4cea5a146101b0575b600080fd5b3480156100d357600080fd5b506100dc6102d9565b6040516100e99190610d5f565b60405180910390f35b3480156100fe57600080fd5b506101076102fd565b6040516101149190610e86565b60405180910390f35b34801561012957600080fd5b50610132610303565b60405161013f9190610e86565b60405180910390f35b34801561015457600080fd5b5061016f600480360381019061016a9190610c88565b610309565b60405161017c9190610e86565b60405180910390f35b34801561019157600080fd5b5061019a610321565b6040516101a79190610e64565b60405180910390f35b3480156101bc57600080fd5b506101c56103af565b6040516101d29190610e86565b60405180910390f35b3480156101e757600080fd5b506101f06103b5565b6040516101fd9190610e64565b60405180910390f35b34801561021257600080fd5b5061021b610443565b005b34801561022957600080fd5b50610232610513565b60405161023f9190610e2e565b60405180910390f35b34801561025457600080fd5b5061025d610723565b60405161026a9190610e49565b60405180910390f35b34801561027f57600080fd5b50610288610736565b6040516102959190610e86565b60405180910390f35b6102a661073c565b005b3480156102b457600080fd5b506102bd61091a565b6040516102d09796959493929190610d7a565b60405180910390f35b60008054906101000a900473ffffffffffffffffffffffffffffffffffffffff1681565b60015481565b60045481565b60086020528060005260406000206000915090505481565b6005805461032e9061102f565b80601f016020809104026020016040519081016040528092919081815260200182805461035a9061102f565b80156103a75780601f1061037c576101008083540402835291602001916103a7565b820191906000526020600020905b81548152906001019060200180831161038a57829003601f168201915b505050505081565b60025481565b600680546103c29061102f565b80601f01602080910402602001604051908101604052809291908181526020018280546103ee9061102f565b801561043b5780601f106104105761010080835404028352916020019161043b565b820191906000526020600020905b81548152906001019060200180831161041e57829003601f168201915b505050505081565b600154600354106104ad576002600760006101000a81548160ff0219169083600281111561049a577f4e487b7100000000000000000000000000000000000000000000000000000000600052602160045260246000fd5b02179055506104a7610a8c565b5061050a565b600454421115610509576001600760006101000a81548160ff02191690836002811115610503577f4e487b7100000000000000000000000000000000000000000000000000000000600052602160045260246000fd5b02179055505b5b42600281905550565b60006001806002811115610550577f4e487b7100000000000000000000000000000000000000000000000000000000600052602160045260246000fd5b600760009054906101000a900460ff166002811115610598577f4e487b7100000000000000000000000000000000000000000000000000000000600052602160045260246000fd5b146105a257600080fd5b6000600860003373ffffffffffffffffffffffffffffffffffffffff1673ffffffffffffffffffffffffffffffffffffffff16815260200190815260200160002054116105ee57600080fd5b6000600860003373ffffffffffffffffffffffffffffffffffffffff1673ffffffffffffffffffffffffffffffffffffffff1681526020019081526020016000205490506000600860003373ffffffffffffffffffffffffffffffffffffffff1673ffffffffffffffffffffffffffffffffffffffff168152602001908152602001600020819055503373ffffffffffffffffffffffffffffffffffffffff166108fc829081150290604051600060405180830381858888f193505050506106fe5780600860003373ffffffffffffffffffffffffffffffffffffffff1673ffffffffffffffffffffffffffffffffffffffff16815260200190815260200160002081905550600092505061071f565b61071381600354610c4790919063ffffffff16565b60038190555060019250505b5090565b600760009054906101000a900460ff1681565b60035481565b6000806002811115610777577f4e487b7100000000000000000000000000000000000000000000000000000000600052602160045260246000fd5b600760009054906101000a900460ff1660028111156107bf577f4e487b7100000000000000000000000000000000000000000000000000000000600052602160045260246000fd5b146107c957600080fd5b60008054906101000a900473ffffffffffffffffffffffffffffffffffffffff1673ffffffffffffffffffffffffffffffffffffffff163373ffffffffffffffffffffffffffffffffffffffff16141561082257600080fd5b61087434600860003373ffffffffffffffffffffffffffffffffffffffff1673ffffffffffffffffffffffffffffffffffffffff16815260200190815260200160002054610c5d90919063ffffffff16565b600860003373ffffffffffffffffffffffffffffffffffffffff1673ffffffffffffffffffffffffffffffffffffffff168152602001908152602001600020819055506108cc34600354610c5d90919063ffffffff16565b6003819055507f5cdc4ab8d637538ead6cc1904d4160343656c8c82bd266635cfd31ac008fffe0333460035460405161090793929190610df7565b60405180910390a1610917610443565b50565b600060608060008060008060008054906101000a900473ffffffffffffffffffffffffffffffffffffffff169650600580546109559061102f565b80601f01602080910402602001604051908101604052809291908181526020018280546109819061102f565b80156109ce5780601f106109a3576101008083540402835291602001916109ce565b820191906000526020600020905b8154815290600101906020018083116109b157829003601f168201915b50505050509550600680546109e29061102f565b80601f0160208091040260200160405190810160405280929190818152602001828054610a0e9061102f565b8015610a5b5780601f10610a3057610100808354040283529160200191610a5b565b820191906000526020600020905b815481529060010190602001808311610a3e57829003601f168201915b505050505094506004549350600760009054906101000a900460ff1692506003549150600154905090919293949596565b60006002806002811115610ac9577f4e487b7100000000000000000000000000000000000000000000000000000000600052602160045260246000fd5b600760009054906101000a900460ff166002811115610b11577f4e487b7100000000000000000000000000000000000000000000000000000000600052602160045260246000fd5b14610b1b57600080fd5b60006003549050600060038190555060008054906101000a900473ffffffffffffffffffffffffffffffffffffffff1673ffffffffffffffffffffffffffffffffffffffff166108fc829081150290604051600060405180830381858888f1935050505015610be5577f2f256415efc8561af8db667cb242964b19be7380f379ccdafaa0e54a6f6b706960008054906101000a900473ffffffffffffffffffffffffffffffffffffffff16604051610bd39190610d44565b60405180910390a16001925050610c43565b806003819055506002600760006101000a81548160ff02191690836002811115610c38577f4e487b7100000000000000000000000000000000000000000000000000000000600052602160045260246000fd5b021790555060009250505b5090565b60008183610c559190610f13565b905092915050565b60008183610c6b9190610ebd565b905092915050565b600081359050610c8281611113565b92915050565b600060208284031215610c9a57600080fd5b6000610ca884828501610c73565b91505092915050565b610cba81610fb4565b82525050565b610cc981610f59565b82525050565b610cd881610f47565b82525050565b610ce781610f6b565b82525050565b610cf681610fc6565b82525050565b6000610d0782610ea1565b610d118185610eac565b9350610d21818560208601610ffc565b610d2a816110ee565b840191505092915050565b610d3e81610faa565b82525050565b6000602082019050610d596000830184610cb1565b92915050565b6000602082019050610d746000830184610cc0565b92915050565b600060e082019050610d8f600083018a610cc0565b8181036020830152610da18189610cfc565b90508181036040830152610db58188610cfc565b9050610dc46060830187610d35565b610dd16080830186610ced565b610dde60a0830185610d35565b610deb60c0830184610d35565b98975050505050505050565b6000606082019050610e0c6000830186610ccf565b610e196020830185610d35565b610e266040830184610d35565b949350505050565b6000602082019050610e436000830184610cde565b92915050565b6000602082019050610e5e6000830184610ced565b92915050565b60006020820190508181036000830152610e7e8184610cfc565b905092915050565b6000602082019050610e9b6000830184610d35565b92915050565b600081519050919050565b600082825260208201905092915050565b6000610ec882610faa565b9150610ed383610faa565b9250827fffffffffffffffffffffffffffffffffffffffffffffffffffffffffffffffff03821115610f0857610f07611061565b5b828201905092915050565b6000610f1e82610faa565b9150610f2983610faa565b925082821015610f3c57610f3b611061565b5b828203905092915050565b6000610f5282610f8a565b9050919050565b6000610f6482610f8a565b9050919050565b60008115159050919050565b6000819050610f85826110ff565b919050565b600073ffffffffffffffffffffffffffffffffffffffff82169050919050565b6000819050919050565b6000610fbf82610fd8565b9050919050565b6000610fd182610f77565b9050919050565b6000610fe382610fea565b9050919050565b6000610ff582610f8a565b9050919050565b60005b8381101561101a578082015181840152602081019050610fff565b83811115611029576000848401525b50505050565b6000600282049050600182168061104757607f821691505b6020821081141561105b5761105a6110bf565b5b50919050565b7f4e487b7100000000000000000000000000000000000000000000000000000000600052601160045260246000fd5b7f4e487b7100000000000000000000000000000000000000000000000000000000600052602160045260246000fd5b7f4e487b7100000000000000000000000000000000000000000000000000000000600052602260045260246000fd5b6000601f19601f8301169050919050565b600381106111105761110f611090565b5b50565b61111c81610f47565b811461112757600080fd5b5056fea26469706673582212203ec1fdbeb9ba5faa995c3c9a2fe8c990186faa446912d81ff2c86ccaf703875064736f6c63430008000033a2646970667358221220174a82fcbf829628153aed782143766b37e01a9a9c5673aab82b7e1096b50da064736f6c63430008000033",
  "linkReferences": {},
  "deployedLinkReferences": {}
}